{
  "_format": "hh-sol-artifact-1",
  "contractName": "CarStore",
  "sourceName": "contracts/CarStore.sol",
  "abi": [
    {
      "inputs": [],
      "stateMutability": "nonpayable",
      "type": "constructor"
    },
    {
      "anonymous": false,
      "inputs": [
        {
          "indexed": false,
          "internalType": "address",
          "name": "car",
          "type": "address"
        },
        {
          "indexed": false,
          "internalType": "uint256",
          "name": "price",
          "type": "uint256"
        }
      ],
      "name": "CarAdded",
      "type": "event"
    },
    {
      "anonymous": false,
      "inputs": [
        {
          "indexed": true,
          "internalType": "address",
          "name": "car",
          "type": "address"
        },
        {
          "indexed": true,
          "internalType": "address",
          "name": "newOwner",
          "type": "address"
        }
      ],
      "name": "CarSold",
      "type": "event"
    },
    {
      "inputs": [
        {
          "internalType": "uint256",
          "name": "price",
          "type": "uint256"
        }
      ],
      "name": "addCar",
      "outputs": [],
      "stateMutability": "nonpayable",
      "type": "function"
    },
    {
      "inputs": [
        {
          "internalType": "address",
          "name": "",
          "type": "address"
        }
      ],
      "name": "cars",
      "outputs": [
        {
          "internalType": "uint256",
          "name": "",
          "type": "uint256"
        }
      ],
      "stateMutability": "view",
      "type": "function"
    },
    {
      "inputs": [],
      "name": "owner",
      "outputs": [
        {
          "internalType": "address",
          "name": "",
          "type": "address"
        }
      ],
      "stateMutability": "view",
      "type": "function"
    },
    {
      "inputs": [
        {
          "internalType": "address",
          "name": "car",
          "type": "address"
        },
        {
          "internalType": "address",
          "name": "newOwner",
          "type": "address"
        }
      ],
      "name": "sellCar",
      "outputs": [],
      "stateMutability": "nonpayable",
      "type": "function"
    }
  ],
  "bytecode": "0x608060405234801561001057600080fd5b5033806000806101000a81548173ffffffffffffffffffffffffffffffffffffffff021916908373ffffffffffffffffffffffffffffffffffffffff16021790555050610be5806100626000396000f3fe608060405234801561001057600080fd5b506004361061004c5760003560e01c80634cf2010e146100515780638da5cb5b1461006d578063afd79cbd1461008b578063c7f81237146100bb575b600080fd5b61006b60048036038101906100669190610557565b6100d7565b005b6100756101f5565b60405161008291906105c5565b60405180910390f35b6100a560048036038101906100a0919061060c565b610219565b6040516100b29190610648565b60405180910390f35b6100d560048036038101906100d09190610663565b610231565b005b60008054906101000a900473ffffffffffffffffffffffffffffffffffffffff1673ffffffffffffffffffffffffffffffffffffffff163373ffffffffffffffffffffffffffffffffffffffff161461012f57600080fd5b6000811161013c57600080fd5b60008160405161014b9061050f565b6101559190610648565b604051809103906000f080158015610171573d6000803e3d6000fd5b50905081600160008373ffffffffffffffffffffffffffffffffffffffff1673ffffffffffffffffffffffffffffffffffffffff168152602001908152602001600020819055507f80a6b9b451c111b5e39ed4ba924bd2dfcf621e214da85bbf4e2228d70600cc6781836040516101e99291906106a3565b60405180910390a15050565b60008054906101000a900473ffffffffffffffffffffffffffffffffffffffff1681565b60016020528060005260406000206000915090505481565b60008054906101000a900473ffffffffffffffffffffffffffffffffffffffff1673ffffffffffffffffffffffffffffffffffffffff163373ffffffffffffffffffffffffffffffffffffffff161461028957600080fd5b6000600160008473ffffffffffffffffffffffffffffffffffffffff1673ffffffffffffffffffffffffffffffffffffffff16815260200190815260200160002054116102d557600080fd5b6000808373ffffffffffffffffffffffffffffffffffffffff16638da5cb5b60e01b6040516020016103079190610719565b60405160208183030381529060405260405161032391906107ae565b600060405180830381855afa9150503d806000811461035e576040519150601f19603f3d011682016040523d82523d6000602084013e610363565b606091505b50915091508161037257600080fd5b6000818060200190518101906103889190610803565b90508073ffffffffffffffffffffffffffffffffffffffff163073ffffffffffffffffffffffffffffffffffffffff16146103c257600080fd5b8473ffffffffffffffffffffffffffffffffffffffff166394b6f9d460e01b856040516024016103f291906105c5565b604051602081830303815290604052907bffffffffffffffffffffffffffffffffffffffffffffffffffffffff19166020820180517bffffffffffffffffffffffffffffffffffffffffffffffffffffffff838183161783525050505060405161045c91906107ae565b6000604051808303816000865af19150503d8060008114610499576040519150601f19603f3d011682016040523d82523d6000602084013e61049e565b606091505b505080935050826104ae57600080fd5b8373ffffffffffffffffffffffffffffffffffffffff168573ffffffffffffffffffffffffffffffffffffffff167ff86f87e760a250f08eba10011cdde24f8452ff082d6e48733734d5b432f0bd5260405160405180910390a35050505050565b61037f8061083183390190565b600080fd5b6000819050919050565b61053481610521565b811461053f57600080fd5b50565b6000813590506105518161052b565b92915050565b60006020828403121561056d5761056c61051c565b5b600061057b84828501610542565b91505092915050565b600073ffffffffffffffffffffffffffffffffffffffff82169050919050565b60006105af82610584565b9050919050565b6105bf816105a4565b82525050565b60006020820190506105da60008301846105b6565b92915050565b6105e9816105a4565b81146105f457600080fd5b50565b600081359050610606816105e0565b92915050565b6000602082840312156106225761062161051c565b5b6000610630848285016105f7565b91505092915050565b61064281610521565b82525050565b600060208201905061065d6000830184610639565b92915050565b6000806040838503121561067a5761067961051c565b5b6000610688858286016105f7565b9250506020610699858286016105f7565b9150509250929050565b60006040820190506106b860008301856105b6565b6106c56020830184610639565b9392505050565b60007fffffffff0000000000000000000000000000000000000000000000000000000082169050919050565b6000819050919050565b61071361070e826106cc565b6106f8565b82525050565b60006107258284610702565b60048201915081905092915050565b600081519050919050565b600081905092915050565b60005b8381101561076857808201518184015260208101905061074d565b83811115610777576000848401525b50505050565b600061078882610734565b610792818561073f565b93506107a281856020860161074a565b80840191505092915050565b60006107ba828461077d565b915081905092915050565b60006107d082610584565b9050919050565b6107e0816107c5565b81146107eb57600080fd5b50565b6000815190506107fd816107d7565b92915050565b6000602082840312156108195761081861051c565b5b6000610827848285016107ee565b9150509291505056fe608060405234801561001057600080fd5b5060405161037f38038061037f833981810160405281019061003291906100bc565b33806000806101000a81548173ffffffffffffffffffffffffffffffffffffffff021916908373ffffffffffffffffffffffffffffffffffffffff1602179055505080600181905550506100e9565b600080fd5b6000819050919050565b61009981610086565b81146100a457600080fd5b50565b6000815190506100b681610090565b92915050565b6000602082840312156100d2576100d1610081565b5b60006100e0848285016100a7565b91505092915050565b610287806100f86000396000f3fe608060405234801561001057600080fd5b50600436106100415760003560e01c80638da5cb5b1461004657806394b6f9d414610064578063a035b1fe14610080575b600080fd5b61004e61009e565b60405161005b91906101a4565b60405180910390f35b61007e600480360381019061007991906101f0565b6100c2565b005b61008861015d565b6040516100959190610236565b60405180910390f35b60008054906101000a900473ffffffffffffffffffffffffffffffffffffffff1681565b60008054906101000a900473ffffffffffffffffffffffffffffffffffffffff1673ffffffffffffffffffffffffffffffffffffffff163373ffffffffffffffffffffffffffffffffffffffff161461011a57600080fd5b806000806101000a81548173ffffffffffffffffffffffffffffffffffffffff021916908373ffffffffffffffffffffffffffffffffffffffff16021790555050565b60015481565b600073ffffffffffffffffffffffffffffffffffffffff82169050919050565b600061018e82610163565b9050919050565b61019e81610183565b82525050565b60006020820190506101b96000830184610195565b92915050565b600080fd5b6101cd81610183565b81146101d857600080fd5b50565b6000813590506101ea816101c4565b92915050565b600060208284031215610206576102056101bf565b5b6000610214848285016101db565b91505092915050565b6000819050919050565b6102308161021d565b82525050565b600060208201905061024b6000830184610227565b9291505056fea264697066735822122005f785844f27d390219e5dcd6ade68052fb919c67f60b63ad1819ce54c274f1564736f6c634300080b0033a2646970667358221220c016ce2ae9153fd5b67dadeff41eb5ecfa07ad62d0100dc17d0da8fb57d0cb7e64736f6c634300080b0033",
  "linkReferences": {},
  "deployedLinkReferences": {}
}